:020000020000FC
:10000000ECEFEAB9E1E0E4B9F3ECF4B9FFEDF5B9EE
:1000100011E021E031E041E0F695F6951F23F695D9
:100020002F23F6953F23F6954F2351E0512761E0AA
:10003000622771E0732781E08427042E07220622BD
:10004000182E13221122282E2322222201280228D0
:10005000182E17221222372E36223122482E432202
:100060004622452213281428282E26222522382EFF
:1000700032223122472E4622452223282428382E98
:100080003522472E46224522342891E09025A1E0D2
:10009000A125B1E0B225C1E0C325492E41204B2264
:1000A0004C22502C51205B225C22692E61206B2255
:1000B0006320792E712072207C2256285728602CCC
:1000C00061206B226C22792E71207B227C22892E6A
:1000D000812082208320902C9A2292209C227828B2
:1000E0007928892E82208320992E91209B22A02C72
:1000F000AA22AB22A32089288A28992E9220932015
:10010000A92EA120A220A320B02CB120BB22BC226A
:10011000AB28E92DEE0FE829EE0FE729EE0FE629CF
:10012000EE0FE529EE0FE429EE0FEE0FEBB9EA2D05
:04013000E5B9FFCF5F
:00000001FF
